{
  "_format": "hh-sol-artifact-1",
  "contractName": "AddressBook",
  "sourceName": "contracts/AddressBook.sol",
  "abi": [
    {
      "anonymous": false,
      "inputs": [
        {
          "indexed": true,
          "internalType": "address",
          "name": "owner",
          "type": "address"
        },
        {
          "indexed": false,
          "internalType": "address",
          "name": "addedAddress",
          "type": "address"
        },
        {
          "indexed": false,
          "internalType": "string",
          "name": "info",
          "type": "string"
        }
      ],
      "name": "AddressAdded",
      "type": "event"
    },
    {
      "anonymous": false,
      "inputs": [
        {
          "indexed": true,
          "internalType": "address",
          "name": "owner",
          "type": "address"
        },
        {
          "indexed": false,
          "internalType": "address",
          "name": "removedAddress",
          "type": "address"
        }
      ],
      "name": "AddressRemoved",
      "type": "event"
    },
    {
      "inputs": [
        {
          "internalType": "address",
          "name": "adrs",
          "type": "address"
        },
        {
          "internalType": "string",
          "name": "info",
          "type": "string"
        }
      ],
      "name": "addAddress",
      "outputs": [],
      "stateMutability": "nonpayable",
      "type": "function"
    },
    {
      "inputs": [
        {
          "internalType": "address",
          "name": "adrs",
          "type": "address"
        }
      ],
      "name": "getAddress",
      "outputs": [
        {
          "internalType": "address[]",
          "name": "",
          "type": "address[]"
        }
      ],
      "stateMutability": "view",
      "type": "function"
    },
    {
      "inputs": [
        {
          "internalType": "address",
          "name": "madrs1",
          "type": "address"
        },
        {
          "internalType": "address",
          "name": "adrs2",
          "type": "address"
        }
      ],
      "name": "getAlias",
      "outputs": [
        {
          "internalType": "string",
          "name": "",
          "type": "string"
        }
      ],
      "stateMutability": "view",
      "type": "function"
    },
    {
      "inputs": [
        {
          "internalType": "address",
          "name": "adrs",
          "type": "address"
        }
      ],
      "name": "removeAddress",
      "outputs": [],
      "stateMutability": "nonpayable",
      "type": "function"
    }
  ],
  "bytecode": "0x608060405234801561001057600080fd5b50611151806100206000396000f3fe608060405234801561001057600080fd5b506004361061004c5760003560e01c8063221a2fdf146100515780634ba79dfe14610081578063ae22c57d1461009d578063d033c456146100cd575b600080fd5b61006b60048036038101906100669190610988565b6100e9565b6040516100789190610a58565b60405180910390f35b61009b60048036038101906100969190610a7a565b6101f8565b005b6100b760048036038101906100b29190610a7a565b610670565b6040516100c49190610b65565b60405180910390f35b6100e760048036038101906100e29190610cbc565b61073c565b005b6060600160008473ffffffffffffffffffffffffffffffffffffffff1673ffffffffffffffffffffffffffffffffffffffff16815260200190815260200160002060008373ffffffffffffffffffffffffffffffffffffffff1673ffffffffffffffffffffffffffffffffffffffff168152602001908152602001600020805461017290610d47565b80601f016020809104026020016040519081016040528092919081815260200182805461019e90610d47565b80156101eb5780601f106101c0576101008083540402835291602001916101eb565b820191906000526020600020905b8154815290600101906020018083116101ce57829003601f168201915b5050505050905092915050565b60008060003373ffffffffffffffffffffffffffffffffffffffff1673ffffffffffffffffffffffffffffffffffffffff16815260200190815260200160002080549050905060005b8181101561066b576000803373ffffffffffffffffffffffffffffffffffffffff1673ffffffffffffffffffffffffffffffffffffffff168152602001908152602001600020818154811061029957610298610d78565b5b9060005260206000200160009054906101000a900473ffffffffffffffffffffffffffffffffffffffff1673ffffffffffffffffffffffffffffffffffffffff168373ffffffffffffffffffffffffffffffffffffffff160361065e576000803373ffffffffffffffffffffffffffffffffffffffff1673ffffffffffffffffffffffffffffffffffffffff168152602001908152602001600020805490506001108015610352575060018261034f9190610de0565b81105b15610477576000803373ffffffffffffffffffffffffffffffffffffffff1673ffffffffffffffffffffffffffffffffffffffff1681526020019081526020016000206001836103a29190610de0565b815481106103b3576103b2610d78565b5b9060005260206000200160009054906101000a900473ffffffffffffffffffffffffffffffffffffffff166000803373ffffffffffffffffffffffffffffffffffffffff1673ffffffffffffffffffffffffffffffffffffffff168152602001908152602001600020828154811061042e5761042d610d78565b5b9060005260206000200160006101000a81548173ffffffffffffffffffffffffffffffffffffffff021916908373ffffffffffffffffffffffffffffffffffffffff1602179055505b3373ffffffffffffffffffffffffffffffffffffffff167f14c03038f91513ea128893e8d0865b80359ca07b96f819269baebe06732bb4ad846040516104bd9190610e23565b60405180910390a26000803373ffffffffffffffffffffffffffffffffffffffff1673ffffffffffffffffffffffffffffffffffffffff1681526020019081526020016000206001836105109190610de0565b8154811061052157610520610d78565b5b9060005260206000200160006101000a81549073ffffffffffffffffffffffffffffffffffffffff02191690556000803373ffffffffffffffffffffffffffffffffffffffff1673ffffffffffffffffffffffffffffffffffffffff16815260200190815260200160002080548061059c5761059b610e3e565b5b6001900381819060005260206000200160006101000a81549073ffffffffffffffffffffffffffffffffffffffff02191690559055600160003373ffffffffffffffffffffffffffffffffffffffff1673ffffffffffffffffffffffffffffffffffffffff16815260200190815260200160002060008473ffffffffffffffffffffffffffffffffffffffff1673ffffffffffffffffffffffffffffffffffffffff168152602001908152602001600020600061065991906108b9565b61066b565b8080600101915050610241565b505050565b60606000808373ffffffffffffffffffffffffffffffffffffffff1673ffffffffffffffffffffffffffffffffffffffff16815260200190815260200160002080548060200260200160405190810160405280929190818152602001828054801561073057602002820191906000526020600020905b8160009054906101000a900473ffffffffffffffffffffffffffffffffffffffff1673ffffffffffffffffffffffffffffffffffffffff16815260200190600101908083116106e6575b50505050509050919050565b6000803373ffffffffffffffffffffffffffffffffffffffff1673ffffffffffffffffffffffffffffffffffffffff168152602001908152602001600020829080600181540180825580915050600190039060005260206000200160009091909190916101000a81548173ffffffffffffffffffffffffffffffffffffffff021916908373ffffffffffffffffffffffffffffffffffffffff16021790555080600160003373ffffffffffffffffffffffffffffffffffffffff1673ffffffffffffffffffffffffffffffffffffffff16815260200190815260200160002060008473ffffffffffffffffffffffffffffffffffffffff1673ffffffffffffffffffffffffffffffffffffffff16815260200190815260200160002090816108649190611019565b503373ffffffffffffffffffffffffffffffffffffffff167f2f7eda35fda5f7778e6d745eddb536886e5593c7b169c42d6ca0eb586315dc4f83836040516108ad9291906110eb565b60405180910390a25050565b5080546108c590610d47565b6000825580601f106108d757506108f6565b601f0160209004906000526020600020908101906108f591906108f9565b5b50565b5b808211156109125760008160009055506001016108fa565b5090565b6000604051905090565b600080fd5b600080fd5b600073ffffffffffffffffffffffffffffffffffffffff82169050919050565b60006109558261092a565b9050919050565b6109658161094a565b811461097057600080fd5b50565b6000813590506109828161095c565b92915050565b6000806040838503121561099f5761099e610920565b5b60006109ad85828601610973565b92505060206109be85828601610973565b9150509250929050565b600081519050919050565b600082825260208201905092915050565b60005b83811015610a025780820151818401526020810190506109e7565b60008484015250505050565b6000601f19601f8301169050919050565b6000610a2a826109c8565b610a3481856109d3565b9350610a448185602086016109e4565b610a4d81610a0e565b840191505092915050565b60006020820190508181036000830152610a728184610a1f565b905092915050565b600060208284031215610a9057610a8f610920565b5b6000610a9e84828501610973565b91505092915050565b600081519050919050565b600082825260208201905092915050565b6000819050602082019050919050565b610adc8161094a565b82525050565b6000610aee8383610ad3565b60208301905092915050565b6000602082019050919050565b6000610b1282610aa7565b610b1c8185610ab2565b9350610b2783610ac3565b8060005b83811015610b58578151610b3f8882610ae2565b9750610b4a83610afa565b925050600181019050610b2b565b5085935050505092915050565b60006020820190508181036000830152610b7f8184610b07565b905092915050565b600080fd5b600080fd5b7f4e487b7100000000000000000000000000000000000000000000000000000000600052604160045260246000fd5b610bc982610a0e565b810181811067ffffffffffffffff82111715610be857610be7610b91565b5b80604052505050565b6000610bfb610916565b9050610c078282610bc0565b919050565b600067ffffffffffffffff821115610c2757610c26610b91565b5b610c3082610a0e565b9050602081019050919050565b82818337600083830152505050565b6000610c5f610c5a84610c0c565b610bf1565b905082815260208101848484011115610c7b57610c7a610b8c565b5b610c86848285610c3d565b509392505050565b600082601f830112610ca357610ca2610b87565b5b8135610cb3848260208601610c4c565b91505092915050565b60008060408385031215610cd357610cd2610920565b5b6000610ce185828601610973565b925050602083013567ffffffffffffffff811115610d0257610d01610925565b5b610d0e85828601610c8e565b9150509250929050565b7f4e487b7100000000000000000000000000000000000000000000000000000000600052602260045260246000fd5b60006002820490506001821680610d5f57607f821691505b602082108103610d7257610d71610d18565b5b50919050565b7f4e487b7100000000000000000000000000000000000000000000000000000000600052603260045260246000fd5b6000819050919050565b7f4e487b7100000000000000000000000000000000000000000000000000000000600052601160045260246000fd5b6000610deb82610da7565b9150610df683610da7565b9250828203905081811115610e0e57610e0d610db1565b5b92915050565b610e1d8161094a565b82525050565b6000602082019050610e386000830184610e14565b92915050565b7f4e487b7100000000000000000000000000000000000000000000000000000000600052603160045260246000fd5b60008190508160005260206000209050919050565b60006020601f8301049050919050565b600082821b905092915050565b600060088302610ecf7fffffffffffffffffffffffffffffffffffffffffffffffffffffffffffffffff82610e92565b610ed98683610e92565b95508019841693508086168417925050509392505050565b6000819050919050565b6000610f16610f11610f0c84610da7565b610ef1565b610da7565b9050919050565b6000819050919050565b610f3083610efb565b610f44610f3c82610f1d565b848454610e9f565b825550505050565b600090565b610f59610f4c565b610f64818484610f27565b505050565b5b81811015610f8857610f7d600082610f51565b600181019050610f6a565b5050565b601f821115610fcd57610f9e81610e6d565b610fa784610e82565b81016020851015610fb6578190505b610fca610fc285610e82565b830182610f69565b50505b505050565b600082821c905092915050565b6000610ff060001984600802610fd2565b1980831691505092915050565b60006110098383610fdf565b9150826002028217905092915050565b611022826109c8565b67ffffffffffffffff81111561103b5761103a610b91565b5b6110458254610d47565b611050828285610f8c565b600060209050601f8311600181146110835760008415611071578287015190505b61107b8582610ffd565b8655506110e3565b601f19841661109186610e6d565b60005b828110156110b957848901518255600182019150602085019450602081019050611094565b868310156110d657848901516110d2601f891682610fdf565b8355505b6001600288020188555050505b505050505050565b60006040820190506111006000830185610e14565b81810360208301526111128184610a1f565b9050939250505056fea2646970667358221220918bb70941c5d1fb35e75002b7ff116e796af8b77aaf3ce30f6dcc347da6fa8f64736f6c63430008180033",
  "linkReferences": {},
  "deployedLinkReferences": {}
}